:1000000009C069C068C067C066C065C064C063C01D
:1000100062C061C011241FBECFE9CDBF01D0B2C004
:10002000A89587E187BBC29A71D08B599140CD9733
:1000300008F037C081E088BB8CE291E088D082E094
:1000400088BB8CE291E083D0C8E1DFE00EE112E0F2
:100050000FB6F894A895C1BD0FBED1BDC098C19888
:10006000C29854D09C01265631402B393105C8F432
:10007000C49A8D3B21E09207A8F09801281B390B08
:10008000C901969587959695879562E370E069D04A
:100090005ED0C09AC19AC29AA8958CE291E057D0DE
:1000A000D7CF1AD08C3A31E0930798F7813921E005
:1000B000920780F78A3731E0930768F7C29A8E5526
:1000C0009140969587959695879562E370E049D023
:1000D0003ED0C298E1CF94CFA89518BA379884B78C
:1000E000877F84BF81B5886181BD81E681BD81B58F
:1000F000806481BD789485B7877E806185BF85B730
:10010000806285BF889585B78F7DF8CF20E230E08B
:1001100080E090E0DC0163E067B9379A369A349B5F
:10012000FECF349A54B145B1379845275427452717
:10013000840F951FA11DB11D2150310969F725E0DC
:10014000B695A795979587952A95D1F70895019724
:1001500008F40895EBE2F1E03197F1F700C00000F8
:10016000F6CF0024552704C0080E591F880F991F89
:10017000009729F076956795B8F37105B9F7802D4A
:08018000952F0895F894FFCFBC
:00000001FF
